:100000000C942A000C943F000C943F000C943F0089
:100010000C943F000C943F000C943F000C943F0064
:100020000C943F000C943F000C943F000C943F0054
:100030000C943F000C943F000C943F000C943F0044
:100040000C943F000C943F000C943F000C943F0034
:100050000C943F0011241FBECFE5D8E0DEBFCDBF1A
:1000600010E0A0E6B0E0E4EEFCE002C005900D92E6
:10007000A837B107D9F70E94C8020C9470060C94F7
:100080000000DF93CF93CDB7DEB7EAE3F0E08FEF68
:100090008083E7E3F0E01082E4E3F0E08FEF808319
:1000A000E1E3F0E08FEF8083ABE3B0E0EBE3F0E07F
:1000B0008081982FEAE3F0E08081809589238C93FA
:1000C000A8E3B0E0E8E3F0E08081982FE7E3F0E018
:1000D0008081809589238C93A5E3B0E0E5E3F0E08F
:1000E0008081982FE4E3F0E08081809589238C93D0
:1000F000A2E3B0E0E2E3F0E08081982FE1E3F0E0FA
:100100008081809589238C93CF91DF910895DF932F
:10011000CF9300D000D0CDB7DEB78A837C836B83CA
:1001200081E089838A81803220F58A81869586954F
:100130008695882F90E0880F991FFC01E059FF4FAA
:100140000190F081E02D8081282F30E08A81882F76
:1001500090E087709070A90102C0559547958A95E7
:10016000E2F7CA018170EB81FC81808381E08983A1
:1001700001C0198289810F900F900F900F90CF913D
:10018000DF910895DF93CF9300D00F92CDB7DEB704
:100190008A836B8381E089838A81803208F051C031
:1001A0008A81869586958695882F90E0880F991F7D
:1001B000FC01E05AFF4F608171818A8186958695A6
:1001C0008695882F90E0880F991FFC01E05AFF4F19
:1001D000A081B1818A81882F90E09C0127703070C6
:1001E00081E090E002C0880F991F2A95E2F7282F3E
:1001F00020958A81869586958695882F90E0880F30
:10020000991FFC01E05AFF4F0190F081E02D8081A1
:10021000422F48238B81282F30E08A81882F90E05D
:1002200087709070F90102C0EE0FFF1F8A95E2F708
:10023000CF01842B8C938C91FB01808381E0898397
:1002400001C0198289810F900F900F90CF91DF919B
:100250000895DF93CF9300D000D0CDB7DEB78A8367
:100260007C836B8381E089838A81853090F48A81E5
:10027000882F90E0880F991FFC01E059FF4F0190F3
:10028000F081E02D8081EB81FC81808381E0898396
:1002900001C0198289810F900F900F900F90CF911C
:1002A000DF910895DF93CF9300D000D00F92CDB7A8
:1002B000DEB78A836B8381E089838A81282F30E0CF
:1002C0003D832C838C819D8181309105D1F02C81DF
:1002D0003D81223031052CF48C819D81009761F0A5
:1002E0001FC02C813D812230310581F08C819D81A0
:1002F0008330910581F014C0EBE3F0E08B818083C3
:1003000010C0E8E3F0E08B8180830BC0E5E3F0E010
:100310008B81808306C0E2E3F0E08B81808301C0A3
:10032000198289810F900F900F900F900F90CF91AD
:10033000DF910895DF93CF9300D00F92CDB7DEB752
:100340008A836B8381E089838A81803208F051C07F
:100350008A81869586958695882F90E0880F991FCB
:10036000FC01E859FF4F608171818A8186958695ED
:100370008695882F90E0880F991FFC01E859FF4F60
:10038000A081B1818A81882F90E09C012770307014
:1003900081E090E002C0880F991F2A95E2F7282F8C
:1003A00020958A81869586958695882F90E0880F7E
:1003B000991FFC01E859FF4F0190F081E02D8081E9
:1003C000422F48238B81282F30E08A81882F90E0AC
:1003D00087709070F90102C0EE0FFF1F8A95E2F757
:1003E000CF01842B8C938C91FB01808381E08983E6
:1003F00001C0198289810F900F900F90CF91DF91EA
:100400000895DF93CF9300D00F92CDB7DEB78A83E4
:100410006B8381E089838A81853080F48A81882F8B
:1004200090E0880F991FFC01E859FF4F0190F0817F
:10043000E02D8B81808381E0898301C019828981CD
:100440000F900F900F90CF91DF910895DF93CF938E
:1004500000D000D0CDB7DEB78A837C836B8381E088
:1004600089838A81853090F48A81882F90E0880F73
:10047000991FFC01E859FF4F0190F081E02D808128
:10048000EB81FC81808381E0898301C019828981AD
:100490000F900F900F900F90CF91DF910895DF9301
:1004A000CF9300D000D0CDB7DEB78A837C836B8337
:1004B00081E089838A818830A0F4EAE3F0E08081DA
:1004C000282F30E08A81882F90E0A90102C055953D
:1004D00047958A95E2F7CA018170EB81FC818083A0
:1004E0004FC08A818830B8F08A818031A0F4E7E378
:1004F000F0E08081282F30E08A81882F90E0A901E8
:1005000002C0559547958A95E2F7CA018170EB8143
:10051000FC81808335C08A818031B8F08A8188313E
:10052000A0F4E4E3F0E08081282F30E08A81882F76
:1005300090E0A90102C0559547958A95E2F7CA0156
:100540008170EB81FC8180831BC08A818831B8F087
:100550008A818032A0F4E1E3F0E08081282F30E04E
:100560008A81882F90E0A90102C0559547958A9508
:10057000E2F7CA018170EB81FC81808301C019829E
:1005800089810F900F900F900F90CF91DF91089578
:10059000DF93CF93CDB7DEB7CE56D0400FB6F894E9
:1005A000DEBF0FBECDBF0E94410080E061E00E942F
:1005B000C20089E18D871E861F86188A198A1A8AC9
:1005C0001B8A1C8A24C180ED97E0A0E0B0E08D8BEF
:1005D0009E8BAF8BB88F0CC000008D899E89AF8930
:1005E000B88D0197A109B1098D8B9E8BAF8BB88F08
:1005F0008D899E89AF89B88D0097A105B10561F7F6
:100600008D85898F9E859A8F8F858B8F98899C8FFA
:1006100089898D8F9A899E8F8B898F8F9C8998A3CA
:100620008FEF89A39FEF9AA38FEF8BA39FEF9CA3DC
:100630008FEF8DA39FEF9EA38FEF8FA39FEF98A7C0
:10064000898D99A1890F89A781E089AB99A5898DA9
:10065000981708F019AA9A8D8AA1980F9AA791E085
:100660009AAB8AA59A8D891708F01AAA89A99AA522
:10067000890F8BAB81E08CAB9BA98AA5981708F0FA
:100680001CAA9AA98CA9982B9AAB9BA99AA78B8D87
:100690009BA1890F8BA781E08DAB9BA58B8D9817B4
:1006A00008F01DAA9AA98BA5980F9EAB91E09FAB6D
:1006B0008EA99BA5891708F01FAA8DA99FA9892B30
:1006C0008DAB8EA98BA79C8D8CA1980F9CA791E0D8
:1006D00098AF8CA59C8D891708F018AE8DA99CA5A4
:1006E000890F89AF81E08AAF99AD8CA5981708F082
:1006F0001AAE98AD8AAD982B98AF99AD9CA78D8D09
:100700009DA1890F8DA781E08BAF9DA58D8D981739
:1007100008F01BAE98AD8DA5980F9CAF91E09DAFF2
:100720008CAD9DA5891708F01DAE8BAD9DAD892BB5
:100730008BAF8CAD8DA79E8D8EA1980F9EA791E05B
:100740009EAF8EA59E8D891708F01EAE8BAD9EA51F
:10075000890F8FAF81E021968FAF21979FAD8EA536
:10076000981718F021961FAE21979EAD21968FAD58
:100770002197982B9EAF9FAD9EA78F8D9FA1890F2C
:100780008FA781E022968FAF22979FA58F8D981714
:1007900018F022961FAE22979EAD8FA5980F239634
:1007A0009FAF239791E024969FAF249723968FAD18
:1007B00023979FA5891718F024961FAE2497229699
:1007C0008FAD229724969FAD2497892B22968FAFC9
:1007D000229723968FAD23978FA798A188A5980F6E
:1007E00098AB22968FAD229798A9890F88AB89A5DF
:1007F0008D879AA59E878BA58F879CA5988B8DA5A5
:10080000898B9EA59A8B8FA58B8B98A99C8B8D85A8
:100810009E85892B9F85892B9889892B9989892B7E
:100820009A89892B9B89892B9C89892B882309F09C
:10083000CACE80E060E00E94C20089E189831A820A
:100840001B821C821D821E821F82188636C280ED8A
:1008500097E0A0E0B0E089879A87AB87BC870CC09F
:10086000000089859A85AB85BC850197A109B109EE
:1008700089879A87AB87BC8789859A85AB85BC8534
:100880000097A105B10561F7898125968FAF25975E
:100890009A8126969FAF26978B8127968FAF2797B1
:1008A0009C8128969FAF28978D8129968FAF299795
:1008B0009E812A969FAF2A978F812B968FAF2B9779
:1008C00098852C969FAF2C978FEF2D968FAF2D97F5
:1008D0009FEF2E969FAF2E978FEF2F968FAF2F976C
:1008E0009FEF60969FAF60978FEF61968FAF619794
:1008F0009FEF62969FAF62978FEF63968FAF63977C
:100900009FEF64969FAF649725968FAD25972D96A0
:100910009FAD2D97890F65968FAF659781E06D9696
:100920008FAF6D9765969FAD659725968FAD25978F
:10093000981718F06D961FAE6D9726969FAD269767
:100940002E968FAD2E97980F66969FAF669791E083
:100950006E969FAF6E9766968FAD669726969FAD03
:100960002697891718F06E961FAE6E976D968FAD0D
:100970006D9766969FAD6697890F6F968FAF6F974D
:1009800081E0A0968FAFA0976F969FAD6F97669608
:100990008FAD6697981718F0A0961FAEA0976E9629
:1009A0009FAD6E97A0968FADA097982B6E969FAF38
:1009B0006E976F969FAD6F9766969FAF66972796D7
:1009C0008FAD27972F969FAD2F97890F67968FAF83
:1009D000679781E0A1968FAFA19767969FAD6797C4
:1009E00027968FAD2797981718F0A1961FAEA1975D
:1009F0006E969FAD6E9767968FAD6797980FA2968C
:100A00009FAFA29791E0A3969FAFA397A2968FADB9
:100A1000A29767969FAD6797891718F0A3961FAEA8
:100A2000A397A1968FADA197A3969FADA397892B6E
:100A3000A1968FAFA197A2968FADA29767968FAF21
:100A4000679728969FAD289760968FAD6097980F0F
:100A500068969FAF689791E0A4969FAFA497689619
:100A60008FAD689728969FAD2897891718F0A496A0
:100A70001FAEA497A1968FADA19768969FAD68977A
:100A8000890FA5968FAFA59781E0A6968FAFA69701
:100A9000A5969FADA59768968FAD6897981718F0A3
:100AA000A6961FAEA697A4969FADA497A6968FADC7
:100AB000A697982BA4969FAFA497A5969FADA597B0
:100AC00068969FAF689729968FAD299761969FADDD
:100AD0006197890F69968FAF699781E0A7968FAF6D
:100AE000A79769969FAD699729968FAD2997981713
:100AF00018F0A7961FAEA797A4969FADA4976996E6
:100B00008FAD6997980FA8969FAFA89791E0A99687
:100B10009FAFA997A8968FADA89769969FAD699743
:100B2000891718F0A9961FAEA997A7968FADA7971A
:100B3000A9969FADA997892BA7968FAFA797A8963F
:100B40008FADA89769968FAF69972A969FAD2A9720
:100B500062968FAD6297980F6A969FAF6A9791E001
:100B6000AA969FAFAA976A968FAD6A972A969FAD6D
:100B70002A97891718F0AA961FAEAA97A7968FAD45
:100B8000A7976A969FAD6A97890FAB968FAFAB9781
:100B900081E0AC968FAFAC97AB969FADAB976A9662
:100BA0008FAD6A97981718F0AC961FAEAC97AA96BF
:100BB0009FADAA97AC968FADAC97982BAA969FAF96
:100BC000AA97AB969FADAB976A969FAF6A972B9605
:100BD0008FAD2B9763969FAD6397890F6B968FAF01
:100BE0006B9781E0AD968FAFAD976B969FAD6B978E
:100BF0002B968FAD2B97981718F0AD961FAEAD972B
:100C0000AA969FADAA976B968FAD6B97980FAE96ED
:100C10009FAFAE9791E0AF969FAFAF97AE968FAD77
:100C2000AE976B969FAD6B97891718F0AF961FAE76
:100C3000AF97AD968FADAD97AF969FADAF97892B20
:100C4000AD968FAFAD97AE968FADAE976B968FAFDB
:100C50006B972C969FAD2C9764968FAD6497980FE9
:100C60006C969FAF6C97AD968FADAD976C969FAD20
:100C70006C97890F6C968FAF6C9765968FAD659763
:100C8000898366969FAD66979A8367968FAD6797BF
:100C90008B8368969FAD68979C8369968FAD6997A3
:100CA0008D836A969FAD6A979E836B968FAD6B9787
:100CB0008F836C969FAD6C97988789819A81892BD9
:100CC0009B81892B9C81892B9D81892B9E81892BDE
:100CD0009F81892B9885892B882309F0B8CD65CC15
:040CE000F894FFCFB6
:100CE4003B003800350032003A0037003400310050
:080CF400390036003300300026
:00000001FF
